{
  "address": "0x5FbDB2315678afecb367f032d93F642f64180aa3",
  "abi": [
    {
      "inputs": [],
      "stateMutability": "nonpayable",
      "type": "constructor"
    },
    {
      "inputs": [
        {
          "internalType": "string",
          "name": "_name",
          "type": "string"
        },
        {
          "internalType": "string",
          "name": "_dateOfBirth",
          "type": "string"
        },
        {
          "internalType": "string",
          "name": "_fatherName",
          "type": "string"
        },
        {
          "internalType": "string",
          "name": "_motherName",
          "type": "string"
        },
        {
          "internalType": "string",
          "name": "_addrLine1",
          "type": "string"
        },
        {
          "internalType": "string",
          "name": "_pinCode",
          "type": "string"
        },
        {
          "internalType": "string",
          "name": "_faceVector",
          "type": "string"
        },
        {
          "internalType": "string",
          "name": "_fingerPrint",
          "type": "string"
        },
        {
          "internalType": "string",
          "name": "_phoneNumber",
          "type": "string"
        },
        {
          "internalType": "address",
          "name": "_user",
          "type": "address"
        }
      ],
      "name": "addUser",
      "outputs": [],
      "stateMutability": "nonpayable",
      "type": "function"
    },
    {
      "inputs": [
        {
          "internalType": "address",
          "name": "walletAddress",
          "type": "address"
        },
        {
          "internalType": "uint256",
          "name": "field",
          "type": "uint256"
        },
        {
          "internalType": "string",
          "name": "newVal",
          "type": "string"
        }
      ],
      "name": "approveChange",
      "outputs": [],
      "stateMutability": "nonpayable",
      "type": "function"
    },
    {
      "inputs": [
        {
          "internalType": "address",
          "name": "_newOwner",
          "type": "address"
        }
      ],
      "name": "changeOwner",
      "outputs": [],
      "stateMutability": "nonpayable",
      "type": "function"
    },
    {
      "inputs": [
        {
          "internalType": "address",
          "name": "walletAddress",
          "type": "address"
        },
        {
          "internalType": "uint256",
          "name": "field",
          "type": "uint256"
        }
      ],
      "name": "getInfo",
      "outputs": [
        {
          "internalType": "string",
          "name": "",
          "type": "string"
        }
      ],
      "stateMutability": "view",
      "type": "function"
    },
    {
      "inputs": [],
      "name": "owner",
      "outputs": [
        {
          "internalType": "address",
          "name": "",
          "type": "address"
        }
      ],
      "stateMutability": "view",
      "type": "function"
    },
    {
      "inputs": [
        {
          "internalType": "address",
          "name": "",
          "type": "address"
        }
      ],
      "name": "userAddressToDID",
      "outputs": [
        {
          "internalType": "string",
          "name": "_name",
          "type": "string"
        },
        {
          "internalType": "string",
          "name": "_dateOfBirth",
          "type": "string"
        },
        {
          "internalType": "string",
          "name": "_fatherName",
          "type": "string"
        },
        {
          "internalType": "string",
          "name": "_motherName",
          "type": "string"
        },
        {
          "components": [
            {
              "internalType": "string",
              "name": "line1",
              "type": "string"
            },
            {
              "internalType": "string",
              "name": "pinCode",
              "type": "string"
            }
          ],
          "internalType": "struct MultiSigDID.Address",
          "name": "_address",
          "type": "tuple"
        },
        {
          "components": [
            {
              "internalType": "string",
              "name": "faceVector",
              "type": "string"
            },
            {
              "internalType": "string",
              "name": "fingerPrint",
              "type": "string"
            }
          ],
          "internalType": "struct MultiSigDID.Biometrics",
          "name": "_biometrics",
          "type": "tuple"
        },
        {
          "internalType": "string",
          "name": "_phoneNumber",
          "type": "string"
        },
        {
          "internalType": "enum MultiSigDID.STATUS",
          "name": "_status",
          "type": "uint8"
        },
        {
          "components": [
            {
              "internalType": "bool",
              "name": "approved",
              "type": "bool"
            },
            {
              "internalType": "uint256",
              "name": "fieldNum",
              "type": "uint256"
            },
            {
              "internalType": "string",
              "name": "newVal",
              "type": "string"
            }
          ],
          "internalType": "struct MultiSigDID.fieldChange",
          "name": "_governmentApproval",
          "type": "tuple"
        },
        {
          "components": [
            {
              "internalType": "bool",
              "name": "approved",
              "type": "bool"
            },
            {
              "internalType": "uint256",
              "name": "fieldNum",
              "type": "uint256"
            },
            {
              "internalType": "string",
              "name": "newVal",
              "type": "string"
            }
          ],
          "internalType": "struct MultiSigDID.fieldChange",
          "name": "_ownerApproval",
          "type": "tuple"
        },
        {
          "internalType": "bool",
          "name": "exists",
          "type": "bool"
        }
      ],
      "stateMutability": "view",
      "type": "function"
    }
  ],
  "transactionHash": "0x8288846ffcd76f5336d445c1a89acbd5513d43d2ad3ec4fd76d3502b3ba3a361",
  "args": [],
  "numDeployments": 1,
  "solcInputHash": "59d4ad40a8a8bc3dd9a371624220303b",
  "bytecode": "0x608060405260405180606001604052806000151581526020016000815260200160405180602001604052806000815250815250600360008201518160000160006101000a81548160ff0219169083151502179055506020820151816001015560408201518160020190805190602001906200007c929190620000d4565b5050503480156200008c57600080fd5b5033600260006101000a81548173ffffffffffffffffffffffffffffffffffffffff021916908373ffffffffffffffffffffffffffffffffffffffff160217905550620001e9565b828054620000e290620001b3565b90600052602060002090601f01602090048101928262000106576000855562000152565b82601f106200012157805160ff191683800117855562000152565b8280016001018555821562000152579182015b828111156200015157825182559160200191906001019062000134565b5b50905062000161919062000165565b5090565b5b808211156200018057600081600090555060010162000166565b5090565b7f4e487b7100000000000000000000000000000000000000000000000000000000600052602260045260246000fd5b60006002820490506001821680620001cc57607f821691505b60208210811415620001e357620001e262000184565b5b50919050565b612c0280620001f96000396000f3fe608060405234801561001057600080fd5b50600436106100625760003560e01c806329d2abe2146100675780636a91e7bc146100a15780638da5cb5b146100d1578063a6f9dae1146100ef578063d1bd85821461010b578063edabd01f14610127575b600080fd5b610081600480360381019061007c919061226f565b610143565b6040516100989b9a99989796959493929190612511565b60405180910390f35b6100bb60048036038101906100b69190612627565b61083d565b6040516100c89190612667565b60405180910390f35b6100d961100e565b6040516100e69190612698565b60405180910390f35b6101096004803603810190610104919061226f565b611034565b005b610125600480360381019061012091906127e8565b611108565b005b610141600480360381019061013c9190612857565b61138a565b005b600060205280600052604060002060009150905080600001805461016690612a61565b80601f016020809104026020016040519081016040528092919081815260200182805461019290612a61565b80156101df5780601f106101b4576101008083540402835291602001916101df565b820191906000526020600020905b8154815290600101906020018083116101c257829003601f168201915b5050505050908060010180546101f490612a61565b80601f016020809104026020016040519081016040528092919081815260200182805461022090612a61565b801561026d5780601f106102425761010080835404028352916020019161026d565b820191906000526020600020905b81548152906001019060200180831161025057829003601f168201915b50505050509080600201805461028290612a61565b80601f01602080910402602001604051908101604052809291908181526020018280546102ae90612a61565b80156102fb5780601f106102d0576101008083540402835291602001916102fb565b820191906000526020600020905b8154815290600101906020018083116102de57829003601f168201915b50505050509080600301805461031090612a61565b80601f016020809104026020016040519081016040528092919081815260200182805461033c90612a61565b80156103895780601f1061035e57610100808354040283529160200191610389565b820191906000526020600020905b81548152906001019060200180831161036c57829003601f168201915b505050505090806004016040518060400160405290816000820180546103ae90612a61565b80601f01602080910402602001604051908101604052809291908181526020018280546103da90612a61565b80156104275780601f106103fc57610100808354040283529160200191610427565b820191906000526020600020905b81548152906001019060200180831161040a57829003601f168201915b5050505050815260200160018201805461044090612a61565b80601f016020809104026020016040519081016040528092919081815260200182805461046c90612a61565b80156104b95780601f1061048e576101008083540402835291602001916104b9565b820191906000526020600020905b81548152906001019060200180831161049c57829003601f168201915b50505050508152505090806006016040518060400160405290816000820180546104e290612a61565b80601f016020809104026020016040519081016040528092919081815260200182805461050e90612a61565b801561055b5780601f106105305761010080835404028352916020019161055b565b820191906000526020600020905b81548152906001019060200180831161053e57829003601f168201915b5050505050815260200160018201805461057490612a61565b80601f01602080910402602001604051908101604052809291908181526020018280546105a090612a61565b80156105ed5780601f106105c2576101008083540402835291602001916105ed565b820191906000526020600020905b8154815290600101906020018083116105d057829003601f168201915b5050505050815250509080600801805461060690612a61565b80601f016020809104026020016040519081016040528092919081815260200182805461063290612a61565b801561067f5780601f106106545761010080835404028352916020019161067f565b820191906000526020600020905b81548152906001019060200180831161066257829003601f168201915b5050505050908060090160009054906101000a900460ff169080600a016040518060600160405290816000820160009054906101000a900460ff16151515158152602001600182015481526020016002820180546106dc90612a61565b80601f016020809104026020016040519081016040528092919081815260200182805461070890612a61565b80156107555780601f1061072a57610100808354040283529160200191610755565b820191906000526020600020905b81548152906001019060200180831161073857829003601f168201915b5050505050815250509080600d016040518060600160405290816000820160009054906101000a900460ff16151515158152602001600182015481526020016002820180546107a390612a61565b80601f01602080910402602001604051908101604052809291908181526020018280546107cf90612a61565b801561081c5780601f106107f15761010080835404028352916020019161081c565b820191906000526020600020905b8154815290600101906020018083116107ff57829003601f168201915b505050505081525050908060100160009054906101000a900460ff1690508b565b60606001821415610919576000808473ffffffffffffffffffffffffffffffffffffffff1673ffffffffffffffffffffffffffffffffffffffff168152602001908152602001600020600001805461089490612a61565b80601f01602080910402602001604051908101604052809291908181526020018280546108c090612a61565b801561090d5780601f106108e25761010080835404028352916020019161090d565b820191906000526020600020905b8154815290600101906020018083116108f057829003601f168201915b50505050509050611008565b60028214156109f3576000808473ffffffffffffffffffffffffffffffffffffffff1673ffffffffffffffffffffffffffffffffffffffff168152602001908152602001600020600101805461096e90612a61565b80601f016020809104026020016040519081016040528092919081815260200182805461099a90612a61565b80156109e75780601f106109bc576101008083540402835291602001916109e7565b820191906000526020600020905b8154815290600101906020018083116109ca57829003601f168201915b50505050509050611008565b6003821415610acd576000808473ffffffffffffffffffffffffffffffffffffffff1673ffffffffffffffffffffffffffffffffffffffff1681526020019081526020016000206002018054610a4890612a61565b80601f0160208091040260200160405190810160405280929190818152602001828054610a7490612a61565b8015610ac15780601f10610a9657610100808354040283529160200191610ac1565b820191906000526020600020905b815481529060010190602001808311610aa457829003601f168201915b50505050509050611008565b6004821415610ba7576000808473ffffffffffffffffffffffffffffffffffffffff1673ffffffffffffffffffffffffffffffffffffffff1681526020019081526020016000206003018054610b2290612a61565b80601f0160208091040260200160405190810160405280929190818152602001828054610b4e90612a61565b8015610b9b5780601f10610b7057610100808354040283529160200191610b9b565b820191906000526020600020905b815481529060010190602001808311610b7e57829003601f168201915b50505050509050611008565b6005821415610c84576000808473ffffffffffffffffffffffffffffffffffffffff1673ffffffffffffffffffffffffffffffffffffffff1681526020019081526020016000206004016000018054610bff90612a61565b80601f0160208091040260200160405190810160405280929190818152602001828054610c2b90612a61565b8015610c785780601f10610c4d57610100808354040283529160200191610c78565b820191906000526020600020905b815481529060010190602001808311610c5b57829003601f168201915b50505050509050611008565b6006821415610d61576000808473ffffffffffffffffffffffffffffffffffffffff1673ffffffffffffffffffffffffffffffffffffffff1681526020019081526020016000206004016001018054610cdc90612a61565b80601f0160208091040260200160405190810160405280929190818152602001828054610d0890612a61565b8015610d555780601f10610d2a57610100808354040283529160200191610d55565b820191906000526020600020905b815481529060010190602001808311610d3857829003601f168201915b50505050509050611008565b6007821415610e3e576000808473ffffffffffffffffffffffffffffffffffffffff1673ffffffffffffffffffffffffffffffffffffffff1681526020019081526020016000206006016000018054610db990612a61565b80601f0160208091040260200160405190810160405280929190818152602001828054610de590612a61565b8015610e325780601f10610e0757610100808354040283529160200191610e32565b820191906000526020600020905b815481529060010190602001808311610e1557829003601f168201915b50505050509050611008565b6008821415610f1b576000808473ffffffffffffffffffffffffffffffffffffffff1673ffffffffffffffffffffffffffffffffffffffff1681526020019081526020016000206006016001018054610e9690612a61565b80601f0160208091040260200160405190810160405280929190818152602001828054610ec290612a61565b8015610f0f5780601f10610ee457610100808354040283529160200191610f0f565b820191906000526020600020905b815481529060010190602001808311610ef257829003601f168201915b50505050509050611008565b6009821415610ff5576000808473ffffffffffffffffffffffffffffffffffffffff1673ffffffffffffffffffffffffffffffffffffffff1681526020019081526020016000206008018054610f7090612a61565b80601f0160208091040260200160405190810160405280929190818152602001828054610f9c90612a61565b8015610fe95780601f10610fbe57610100808354040283529160200191610fe9565b820191906000526020600020905b815481529060010190602001808311610fcc57829003601f168201915b50505050509050611008565b6040518060200160405280600081525090505b92915050565b600260009054906101000a900473ffffffffffffffffffffffffffffffffffffffff1681565b600260009054906101000a900473ffffffffffffffffffffffffffffffffffffffff1673ffffffffffffffffffffffffffffffffffffffff163373ffffffffffffffffffffffffffffffffffffffff16146110c4576040517f08c379a00000000000000000000000000000000000000000000000000000000081526004016110bb90612b05565b60405180910390fd5b80600260006101000a81548173ffffffffffffffffffffffffffffffffffffffff021916908373ffffffffffffffffffffffffffffffffffffffff16021790555050565b60018081111561111b5761111a612407565b5b6000808573ffffffffffffffffffffffffffffffffffffffff1673ffffffffffffffffffffffffffffffffffffffff16815260200190815260200160002060090160009054906101000a900460ff16600181111561117c5761117b612407565b5b141561118757611385565b3373ffffffffffffffffffffffffffffffffffffffff16600260009054906101000a900473ffffffffffffffffffffffffffffffffffffffff1673ffffffffffffffffffffffffffffffffffffffff16141561128b576040518060600160405280600115158152602001838152602001828152506000808573ffffffffffffffffffffffffffffffffffffffff1673ffffffffffffffffffffffffffffffffffffffff168152602001908152602001600020600a0160008201518160000160006101000a81548160ff0219169083151502179055506020820151816001015560408201518160020190805190602001906112829291906120cd565b5090505061136a565b3373ffffffffffffffffffffffffffffffffffffffff168373ffffffffffffffffffffffffffffffffffffffff161415611369576040518060600160405280600115158152602001838152602001828152506000808573ffffffffffffffffffffffffffffffffffffffff1673ffffffffffffffffffffffffffffffffffffffff168152602001908152602001600020600d0160008201518160000160006101000a81548160ff0219169083151502179055506020820151816001015560408201518160020190805190602001906113649291906120cd565b509050505b5b611373836117c3565b1561138457611383838383611b8b565b5b5b505050565b600260009054906101000a900473ffffffffffffffffffffffffffffffffffffffff1673ffffffffffffffffffffffffffffffffffffffff163373ffffffffffffffffffffffffffffffffffffffff161461141a576040517f08c379a000000000000000000000000000000000000000000000000000000000815260040161141190612b05565b60405180910390fd5b6000808273ffffffffffffffffffffffffffffffffffffffff1673ffffffffffffffffffffffffffffffffffffffff16815260200190815260200160002060100160009054906101000a900460ff1615611473576117b7565b60006040518060400160405280888152602001878152509050600060405180604001604052808781526020018681525090506040518061016001604052808d81526020018c81526020018b81526020018a8152602001838152602001828152602001858152602001600060018111156114ef576114ee612407565b5b8152602001604051806060016040528060001515815260200160018152602001604051806020016040528060008152508152508152602001604051806060016040528060001515815260200160018152602001604051806020016040528060008152508152508152602001600115158152506000808573ffffffffffffffffffffffffffffffffffffffff1673ffffffffffffffffffffffffffffffffffffffff16815260200190815260200160002060008201518160000190805190602001906115bb9291906120cd565b5060208201518160010190805190602001906115d89291906120cd565b5060408201518160020190805190602001906115f59291906120cd565b5060608201518160030190805190602001906116129291906120cd565b5060808201518160040160008201518160000190805190602001906116389291906120cd565b5060208201518160010190805190602001906116559291906120cd565b50505060a082015181600601600082015181600001908051906020019061167d9291906120cd565b50602082015181600101908051906020019061169a9291906120cd565b50505060c08201518160080190805190602001906116b99291906120cd565b5060e08201518160090160006101000a81548160ff021916908360018111156116e5576116e4612407565b5b021790555061010082015181600a0160008201518160000160006101000a81548160ff02191690831515021790555060208201518160010155604082015181600201908051906020019061173a9291906120cd565b50505061012082015181600d0160008201518160000160006101000a81548160ff02191690831515021790555060208201518160010155604082015181600201908051906020019061178d9291906120cd565b5050506101408201518160100160006101000a81548160ff02191690831515021790555090505050505b50505050505050505050565b60008060008373ffffffffffffffffffffffffffffffffffffffff1673ffffffffffffffffffffffffffffffffffffffff168152602001908152602001600020600a0160000160009054906101000a900460ff16158061187257506000808373ffffffffffffffffffffffffffffffffffffffff1673ffffffffffffffffffffffffffffffffffffffff168152602001908152602001600020600d0160000160009054906101000a900460ff16155b156118805760009050611b86565b6000808373ffffffffffffffffffffffffffffffffffffffff1673ffffffffffffffffffffffffffffffffffffffff168152602001908152602001600020600d01600101546000808473ffffffffffffffffffffffffffffffffffffffff1673ffffffffffffffffffffffffffffffffffffffff168152602001908152602001600020600a0160010154146119185760009050611b86565b60008060008473ffffffffffffffffffffffffffffffffffffffff1673ffffffffffffffffffffffffffffffffffffffff168152602001908152602001600020600a01600201805461196990612a61565b80601f016020809104026020016040519081016040528092919081815260200182805461199590612a61565b80156119e25780601f106119b7576101008083540402835291602001916119e2565b820191906000526020600020905b8154815290600101906020018083116119c557829003601f168201915b5050505050905060008060008573ffffffffffffffffffffffffffffffffffffffff1673ffffffffffffffffffffffffffffffffffffffff168152602001908152602001600020600d016002018054611a3a90612a61565b80601f0160208091040260200160405190810160405280929190818152602001828054611a6690612a61565b8015611ab35780601f10611a8857610100808354040283529160200191611ab3565b820191906000526020600020905b815481529060010190602001808311611a9657829003601f168201915b505050505090508051825114611ace57600092505050611b86565b60005b8251811015611b7e57818181518110611aed57611aec612b25565b5b602001015160f81c60f81b7effffffffffffffffffffffffffffffffffffffffffffffffffffffffffffff1916838281518110611b2d57611b2c612b25565b5b602001015160f81c60f81b7effffffffffffffffffffffffffffffffffffffffffffffffffffffffffffff191614611b6b5760009350505050611b86565b8080611b7690612b83565b915050611ad1565b506001925050505b919050565b6001821415611bef57806000808573ffffffffffffffffffffffffffffffffffffffff1673ffffffffffffffffffffffffffffffffffffffff1681526020019081526020016000206000019080519060200190611be99291906120cd565b50611f8e565b6002821415611c5357806000808573ffffffffffffffffffffffffffffffffffffffff1673ffffffffffffffffffffffffffffffffffffffff1681526020019081526020016000206001019080519060200190611c4d9291906120cd565b50611f8d565b6003821415611cb757806000808573ffffffffffffffffffffffffffffffffffffffff1673ffffffffffffffffffffffffffffffffffffffff1681526020019081526020016000206002019080519060200190611cb19291906120cd565b50611f8c565b6004821415611d1b57806000808573ffffffffffffffffffffffffffffffffffffffff1673ffffffffffffffffffffffffffffffffffffffff1681526020019081526020016000206003019080519060200190611d159291906120cd565b50611f8b565b6005821415611d8257806000808573ffffffffffffffffffffffffffffffffffffffff1673ffffffffffffffffffffffffffffffffffffffff1681526020019081526020016000206004016000019080519060200190611d7c9291906120cd565b50611f8a565b6006821415611de957806000808573ffffffffffffffffffffffffffffffffffffffff1673ffffffffffffffffffffffffffffffffffffffff1681526020019081526020016000206004016001019080519060200190611de39291906120cd565b50611f89565b6007821415611e5057806000808573ffffffffffffffffffffffffffffffffffffffff1673ffffffffffffffffffffffffffffffffffffffff1681526020019081526020016000206006016000019080519060200190611e4a9291906120cd565b50611f88565b6008821415611eb757806000808573ffffffffffffffffffffffffffffffffffffffff1673ffffffffffffffffffffffffffffffffffffffff1681526020019081526020016000206006016001019080519060200190611eb19291906120cd565b50611f87565b6009821415611f1b57806000808573ffffffffffffffffffffffffffffffffffffffff1673ffffffffffffffffffffffffffffffffffffffff1681526020019081526020016000206008019080519060200190611f159291906120cd565b50611f86565b60016000808573ffffffffffffffffffffffffffffffffffffffff1673ffffffffffffffffffffffffffffffffffffffff16815260200190815260200160002060090160006101000a81548160ff02191690836001811115611f8057611f7f612407565b5b02179055505b5b5b5b5b5b5b5b5b60036000808573ffffffffffffffffffffffffffffffffffffffff1673ffffffffffffffffffffffffffffffffffffffff168152602001908152602001600020600a016000820160009054906101000a900460ff168160000160006101000a81548160ff02191690831515021790555060018201548160010155600282018160020190805461201c90612a61565b612027929190612153565b5090505060036000808573ffffffffffffffffffffffffffffffffffffffff1673ffffffffffffffffffffffffffffffffffffffff168152602001908152602001600020600d016000820160009054906101000a900460ff168160000160006101000a81548160ff0219169083151502179055506001820154816001015560028201816002019080546120b990612a61565b6120c4929190612153565b50905050505050565b8280546120d990612a61565b90600052602060002090601f0160209004810192826120fb5760008555612142565b82601f1061211457805160ff1916838001178555612142565b82800160010185558215612142579182015b82811115612141578251825591602001919060010190612126565b5b50905061214f91906121e0565b5090565b82805461215f90612a61565b90600052602060002090601f01602090048101928261218157600085556121cf565b82601f1061219257805485556121cf565b828001600101855582156121cf57600052602060002091601f016020900482015b828111156121ce5782548255916001019190600101906121b3565b5b5090506121dc91906121e0565b5090565b5b808211156121f95760008160009055506001016121e1565b5090565b6000604051905090565b600080fd5b600080fd5b600073ffffffffffffffffffffffffffffffffffffffff82169050919050565b600061223c82612211565b9050919050565b61224c81612231565b811461225757600080fd5b50565b60008135905061226981612243565b92915050565b60006020828403121561228557612284612207565b5b60006122938482850161225a565b91505092915050565b600081519050919050565b600082825260208201905092915050565b60005b838110156122d65780820151818401526020810190506122bb565b838111156122e5576000848401525b50505050565b6000601f19601f8301169050919050565b60006123078261229c565b61231181856122a7565b93506123218185602086016122b8565b61232a816122eb565b840191505092915050565b600082825260208201905092915050565b60006123518261229c565b61235b8185612335565b935061236b8185602086016122b8565b612374816122eb565b840191505092915050565b6000604083016000830151848203600086015261239c8282612346565b915050602083015184820360208601526123b68282612346565b9150508091505092915050565b600060408301600083015184820360008601526123e08282612346565b915050602083015184820360208601526123fa8282612346565b9150508091505092915050565b7f4e487b7100000000000000000000000000000000000000000000000000000000600052602160045260246000fd5b6002811061244757612446612407565b5b50565b600081905061245882612436565b919050565b60006124688261244a565b9050919050565b6124788161245d565b82525050565b60008115159050919050565b6124938161247e565b82525050565b6000819050919050565b6124ac81612499565b82525050565b60006060830160008301516124ca600086018261248a565b5060208301516124dd60208601826124a3565b50604083015184820360408601526124f58282612346565b9150508091505092915050565b61250b8161247e565b82525050565b600061016082019050818103600083015261252c818e6122fc565b90508181036020830152612540818d6122fc565b90508181036040830152612554818c6122fc565b90508181036060830152612568818b6122fc565b9050818103608083015261257c818a61237f565b905081810360a083015261259081896123c3565b905081810360c08301526125a481886122fc565b90506125b360e083018761246f565b8181036101008301526125c681866124b2565b90508181036101208301526125db81856124b2565b90506125eb610140830184612502565b9c9b505050505050505050505050565b61260481612499565b811461260f57600080fd5b50565b600081359050612621816125fb565b92915050565b6000806040838503121561263e5761263d612207565b5b600061264c8582860161225a565b925050602061265d85828601612612565b9150509250929050565b6000602082019050818103600083015261268181846122fc565b905092915050565b61269281612231565b82525050565b60006020820190506126ad6000830184612689565b92915050565b600080fd5b600080fd5b7f4e487b7100000000000000000000000000000000000000000000000000000000600052604160045260246000fd5b6126f5826122eb565b810181811067ffffffffffffffff82111715612714576127136126bd565b5b80604052505050565b60006127276121fd565b905061273382826126ec565b919050565b600067ffffffffffffffff821115612753576127526126bd565b5b61275c826122eb565b9050602081019050919050565b82818337600083830152505050565b600061278b61278684612738565b61271d565b9050828152602081018484840111156127a7576127a66126b8565b5b6127b2848285612769565b509392505050565b600082601f8301126127cf576127ce6126b3565b5b81356127df848260208601612778565b91505092915050565b60008060006060848603121561280157612800612207565b5b600061280f8682870161225a565b935050602061282086828701612612565b925050604084013567ffffffffffffffff8111156128415761284061220c565b5b61284d868287016127ba565b9150509250925092565b6000806000806000806000806000806101408b8d03121561287b5761287a612207565b5b60008b013567ffffffffffffffff8111156128995761289861220c565b5b6128a58d828e016127ba565b9a505060208b013567ffffffffffffffff8111156128c6576128c561220c565b5b6128d28d828e016127ba565b99505060408b013567ffffffffffffffff8111156128f3576128f261220c565b5b6128ff8d828e016127ba565b98505060608b013567ffffffffffffffff8111156129205761291f61220c565b5b61292c8d828e016127ba565b97505060808b013567ffffffffffffffff81111561294d5761294c61220c565b5b6129598d828e016127ba565b96505060a08b013567ffffffffffffffff81111561297a5761297961220c565b5b6129868d828e016127ba565b95505060c08b013567ffffffffffffffff8111156129a7576129a661220c565b5b6129b38d828e016127ba565b94505060e08b013567ffffffffffffffff8111156129d4576129d361220c565b5b6129e08d828e016127ba565b9350506101008b013567ffffffffffffffff811115612a0257612a0161220c565b5b612a0e8d828e016127ba565b925050610120612a208d828e0161225a565b9150509295989b9194979a5092959850565b7f4e487b7100000000000000000000000000000000000000000000000000000000600052602260045260246000fd5b60006002820490506001821680612a7957607f821691505b60208210811415612a8d57612a8c612a32565b5b50919050565b7f55736572206973206e6f7420617574686f72697a656420746f20616464206e6560008201527f7720757365720000000000000000000000000000000000000000000000000000602082015250565b6000612aef6026836122a7565b9150612afa82612a93565b604082019050919050565b60006020820190508181036000830152612b1e81612ae2565b9050919050565b7f4e487b7100000000000000000000000000000000000000000000000000000000600052603260045260246000fd5b7f4e487b7100000000000000000000000000000000000000000000000000000000600052601160045260246000fd5b6000612b8e82612499565b91507fffffffffffffffffffffffffffffffffffffffffffffffffffffffffffffffff821415612bc157612bc0612b54565b5b60018201905091905056fea26469706673582212201d58d68ce9ab2b4f5418366d51369e3727fd2fbe274cb02889ae3867b020b32a64736f6c634300080a0033",
  "devdoc": {
    "author": "Mohammad Touseef, Aryan, Mudit Jain, Dr. Harkeerat Kaur",
    "kind": "dev",
    "methods": {},
    "title": "MultiSig DID Contract",
    "version": 1
  },
  "userdoc": {
    "kind": "user",
    "methods": {},
    "notice": "This contract is just used for demonstration and experimental purposes",
    "version": 1
  },
  "storageLayout": {
    "storage": [
      {
        "astId": 55,
        "contract": "contracts/MultiSigDID.sol:MultiSigDID",
        "label": "userAddressToDID",
        "offset": 0,
        "slot": "0",
        "type": "t_mapping(t_address,t_struct(DID)50_storage)"
      },
      {
        "astId": 59,
        "contract": "contracts/MultiSigDID.sol:MultiSigDID",
        "label": "parameterToValue",
        "offset": 0,
        "slot": "1",
        "type": "t_mapping(t_uint256,t_string_storage)"
      },
      {
        "astId": 61,
        "contract": "contracts/MultiSigDID.sol:MultiSigDID",
        "label": "owner",
        "offset": 0,
        "slot": "2",
        "type": "t_address"
      },
      {
        "astId": 69,
        "contract": "contracts/MultiSigDID.sol:MultiSigDID",
        "label": "initialEntry",
        "offset": 0,
        "slot": "3",
        "type": "t_struct(fieldChange)12_storage"
      }
    ],
    "types": {
      "t_address": {
        "encoding": "inplace",
        "label": "address",
        "numberOfBytes": "20"
      },
      "t_bool": {
        "encoding": "inplace",
        "label": "bool",
        "numberOfBytes": "1"
      },
      "t_enum(STATUS)5": {
        "encoding": "inplace",
        "label": "enum MultiSigDID.STATUS",
        "numberOfBytes": "1"
      },
      "t_mapping(t_address,t_struct(DID)50_storage)": {
        "encoding": "mapping",
        "key": "t_address",
        "label": "mapping(address => struct MultiSigDID.DID)",
        "numberOfBytes": "32",
        "value": "t_struct(DID)50_storage"
      },
      "t_mapping(t_uint256,t_string_storage)": {
        "encoding": "mapping",
        "key": "t_uint256",
        "label": "mapping(uint256 => string)",
        "numberOfBytes": "32",
        "value": "t_string_storage"
      },
      "t_string_storage": {
        "encoding": "bytes",
        "label": "string",
        "numberOfBytes": "32"
      },
      "t_struct(Address)17_storage": {
        "encoding": "inplace",
        "label": "struct MultiSigDID.Address",
        "members": [
          {
            "astId": 14,
            "contract": "contracts/MultiSigDID.sol:MultiSigDID",
            "label": "line1",
            "offset": 0,
            "slot": "0",
            "type": "t_string_storage"
          },
          {
            "astId": 16,
            "contract": "contracts/MultiSigDID.sol:MultiSigDID",
            "label": "pinCode",
            "offset": 0,
            "slot": "1",
            "type": "t_string_storage"
          }
        ],
        "numberOfBytes": "64"
      },
      "t_struct(Biometrics)22_storage": {
        "encoding": "inplace",
        "label": "struct MultiSigDID.Biometrics",
        "members": [
          {
            "astId": 19,
            "contract": "contracts/MultiSigDID.sol:MultiSigDID",
            "label": "faceVector",
            "offset": 0,
            "slot": "0",
            "type": "t_string_storage"
          },
          {
            "astId": 21,
            "contract": "contracts/MultiSigDID.sol:MultiSigDID",
            "label": "fingerPrint",
            "offset": 0,
            "slot": "1",
            "type": "t_string_storage"
          }
        ],
        "numberOfBytes": "64"
      },
      "t_struct(DID)50_storage": {
        "encoding": "inplace",
        "label": "struct MultiSigDID.DID",
        "members": [
          {
            "astId": 24,
            "contract": "contracts/MultiSigDID.sol:MultiSigDID",
            "label": "_name",
            "offset": 0,
            "slot": "0",
            "type": "t_string_storage"
          },
          {
            "astId": 26,
            "contract": "contracts/MultiSigDID.sol:MultiSigDID",
            "label": "_dateOfBirth",
            "offset": 0,
            "slot": "1",
            "type": "t_string_storage"
          },
          {
            "astId": 28,
            "contract": "contracts/MultiSigDID.sol:MultiSigDID",
            "label": "_fatherName",
            "offset": 0,
            "slot": "2",
            "type": "t_string_storage"
          },
          {
            "astId": 30,
            "contract": "contracts/MultiSigDID.sol:MultiSigDID",
            "label": "_motherName",
            "offset": 0,
            "slot": "3",
            "type": "t_string_storage"
          },
          {
            "astId": 33,
            "contract": "contracts/MultiSigDID.sol:MultiSigDID",
            "label": "_address",
            "offset": 0,
            "slot": "4",
            "type": "t_struct(Address)17_storage"
          },
          {
            "astId": 36,
            "contract": "contracts/MultiSigDID.sol:MultiSigDID",
            "label": "_biometrics",
            "offset": 0,
            "slot": "6",
            "type": "t_struct(Biometrics)22_storage"
          },
          {
            "astId": 38,
            "contract": "contracts/MultiSigDID.sol:MultiSigDID",
            "label": "_phoneNumber",
            "offset": 0,
            "slot": "8",
            "type": "t_string_storage"
          },
          {
            "astId": 41,
            "contract": "contracts/MultiSigDID.sol:MultiSigDID",
            "label": "_status",
            "offset": 0,
            "slot": "9",
            "type": "t_enum(STATUS)5"
          },
          {
            "astId": 44,
            "contract": "contracts/MultiSigDID.sol:MultiSigDID",
            "label": "_governmentApproval",
            "offset": 0,
            "slot": "10",
            "type": "t_struct(fieldChange)12_storage"
          },
          {
            "astId": 47,
            "contract": "contracts/MultiSigDID.sol:MultiSigDID",
            "label": "_ownerApproval",
            "offset": 0,
            "slot": "13",
            "type": "t_struct(fieldChange)12_storage"
          },
          {
            "astId": 49,
            "contract": "contracts/MultiSigDID.sol:MultiSigDID",
            "label": "exists",
            "offset": 0,
            "slot": "16",
            "type": "t_bool"
          }
        ],
        "numberOfBytes": "544"
      },
      "t_struct(fieldChange)12_storage": {
        "encoding": "inplace",
        "label": "struct MultiSigDID.fieldChange",
        "members": [
          {
            "astId": 7,
            "contract": "contracts/MultiSigDID.sol:MultiSigDID",
            "label": "approved",
            "offset": 0,
            "slot": "0",
            "type": "t_bool"
          },
          {
            "astId": 9,
            "contract": "contracts/MultiSigDID.sol:MultiSigDID",
            "label": "fieldNum",
            "offset": 0,
            "slot": "1",
            "type": "t_uint256"
          },
          {
            "astId": 11,
            "contract": "contracts/MultiSigDID.sol:MultiSigDID",
            "label": "newVal",
            "offset": 0,
            "slot": "2",
            "type": "t_string_storage"
          }
        ],
        "numberOfBytes": "96"
      },
      "t_uint256": {
        "encoding": "inplace",
        "label": "uint256",
        "numberOfBytes": "32"
      }
    }
  }
}