{
  "_format": "hh-sol-artifact-1",
  "contractName": "MultiSigDID",
  "sourceName": "contracts/MultiSigDID.sol",
  "abi": [
    {
      "inputs": [],
      "stateMutability": "nonpayable",
      "type": "constructor"
    },
    {
      "inputs": [],
      "name": "MultiSigDID__userAlreadyExists",
      "type": "error"
    },
    {
      "anonymous": false,
      "inputs": [
        {
          "indexed": false,
          "internalType": "address",
          "name": "user",
          "type": "address"
        }
      ],
      "name": "newUserReg",
      "type": "event"
    },
    {
      "inputs": [
        {
          "internalType": "string",
          "name": "_name",
          "type": "string"
        },
        {
          "internalType": "string",
          "name": "_dateOfBirth",
          "type": "string"
        },
        {
          "internalType": "string",
          "name": "_fatherName",
          "type": "string"
        },
        {
          "internalType": "string",
          "name": "_motherName",
          "type": "string"
        },
        {
          "internalType": "string",
          "name": "_addrLine1",
          "type": "string"
        },
        {
          "internalType": "string",
          "name": "_pinCode",
          "type": "string"
        },
        {
          "internalType": "string",
          "name": "_faceVector",
          "type": "string"
        },
        {
          "internalType": "string",
          "name": "_fingerPrint",
          "type": "string"
        },
        {
          "internalType": "string",
          "name": "_phoneNumber",
          "type": "string"
        },
        {
          "internalType": "address",
          "name": "_user",
          "type": "address"
        }
      ],
      "name": "addUser",
      "outputs": [],
      "stateMutability": "nonpayable",
      "type": "function"
    },
    {
      "inputs": [
        {
          "internalType": "address",
          "name": "walletAddress",
          "type": "address"
        },
        {
          "internalType": "uint256",
          "name": "field",
          "type": "uint256"
        },
        {
          "internalType": "string",
          "name": "newVal",
          "type": "string"
        }
      ],
      "name": "approveChange",
      "outputs": [],
      "stateMutability": "nonpayable",
      "type": "function"
    },
    {
      "inputs": [
        {
          "internalType": "address",
          "name": "_newOwner",
          "type": "address"
        }
      ],
      "name": "changeOwner",
      "outputs": [],
      "stateMutability": "nonpayable",
      "type": "function"
    },
    {
      "inputs": [
        {
          "internalType": "address",
          "name": "walletAddress",
          "type": "address"
        },
        {
          "internalType": "uint256",
          "name": "field",
          "type": "uint256"
        }
      ],
      "name": "getInfo",
      "outputs": [
        {
          "internalType": "string",
          "name": "",
          "type": "string"
        }
      ],
      "stateMutability": "view",
      "type": "function"
    },
    {
      "inputs": [],
      "name": "owner",
      "outputs": [
        {
          "internalType": "address",
          "name": "",
          "type": "address"
        }
      ],
      "stateMutability": "view",
      "type": "function"
    },
    {
      "inputs": [
        {
          "internalType": "address",
          "name": "",
          "type": "address"
        }
      ],
      "name": "userAddressToDID",
      "outputs": [
        {
          "internalType": "string",
          "name": "_name",
          "type": "string"
        },
        {
          "internalType": "string",
          "name": "_dateOfBirth",
          "type": "string"
        },
        {
          "internalType": "string",
          "name": "_fatherName",
          "type": "string"
        },
        {
          "internalType": "string",
          "name": "_motherName",
          "type": "string"
        },
        {
          "components": [
            {
              "internalType": "string",
              "name": "line1",
              "type": "string"
            },
            {
              "internalType": "string",
              "name": "pinCode",
              "type": "string"
            }
          ],
          "internalType": "struct MultiSigDID.Address",
          "name": "_address",
          "type": "tuple"
        },
        {
          "components": [
            {
              "internalType": "string",
              "name": "faceVector",
              "type": "string"
            },
            {
              "internalType": "string",
              "name": "fingerPrint",
              "type": "string"
            }
          ],
          "internalType": "struct MultiSigDID.Biometrics",
          "name": "_biometrics",
          "type": "tuple"
        },
        {
          "internalType": "string",
          "name": "_phoneNumber",
          "type": "string"
        },
        {
          "internalType": "enum MultiSigDID.STATUS",
          "name": "_status",
          "type": "uint8"
        },
        {
          "components": [
            {
              "internalType": "bool",
              "name": "approved",
              "type": "bool"
            },
            {
              "internalType": "uint256",
              "name": "fieldNum",
              "type": "uint256"
            },
            {
              "internalType": "string",
              "name": "newVal",
              "type": "string"
            }
          ],
          "internalType": "struct MultiSigDID.fieldChange",
          "name": "_governmentApproval",
          "type": "tuple"
        },
        {
          "components": [
            {
              "internalType": "bool",
              "name": "approved",
              "type": "bool"
            },
            {
              "internalType": "uint256",
              "name": "fieldNum",
              "type": "uint256"
            },
            {
              "internalType": "string",
              "name": "newVal",
              "type": "string"
            }
          ],
          "internalType": "struct MultiSigDID.fieldChange",
          "name": "_ownerApproval",
          "type": "tuple"
        },
        {
          "internalType": "bool",
          "name": "exists",
          "type": "bool"
        }
      ],
      "stateMutability": "view",
      "type": "function"
    }
  ],
  "bytecode": "0x608060405260405180606001604052806000151581526020016000815260200160405180602001604052806000815250815250600360008201518160000160006101000a81548160ff0219169083151502179055506020820151816001015560408201518160020190805190602001906200007c929190620000d4565b5050503480156200008c57600080fd5b5033600260006101000a81548173ffffffffffffffffffffffffffffffffffffffff021916908373ffffffffffffffffffffffffffffffffffffffff160217905550620001e9565b828054620000e290620001b3565b90600052602060002090601f01602090048101928262000106576000855562000152565b82601f106200012157805160ff191683800117855562000152565b8280016001018555821562000152579182015b828111156200015157825182559160200191906001019062000134565b5b50905062000161919062000165565b5090565b5b808211156200018057600081600090555060010162000166565b5090565b7f4e487b7100000000000000000000000000000000000000000000000000000000600052602260045260246000fd5b60006002820490506001821680620001cc57607f821691505b60208210811415620001e357620001e262000184565b5b50919050565b612c6580620001f96000396000f3fe608060405234801561001057600080fd5b50600436106100625760003560e01c806329d2abe2146100675780636a91e7bc146100a15780638da5cb5b146100d1578063a6f9dae1146100ef578063d1bd85821461010b578063edabd01f14610127575b600080fd5b610081600480360381019061007c91906122d2565b610143565b6040516100989b9a99989796959493929190612574565b60405180910390f35b6100bb60048036038101906100b6919061268a565b61083d565b6040516100c891906126ca565b60405180910390f35b6100d961100e565b6040516100e691906126fb565b60405180910390f35b610109600480360381019061010491906122d2565b611034565b005b6101256004803603810190610120919061284b565b611108565b005b610141600480360381019061013c91906128ba565b61138a565b005b600060205280600052604060002060009150905080600001805461016690612ac4565b80601f016020809104026020016040519081016040528092919081815260200182805461019290612ac4565b80156101df5780601f106101b4576101008083540402835291602001916101df565b820191906000526020600020905b8154815290600101906020018083116101c257829003601f168201915b5050505050908060010180546101f490612ac4565b80601f016020809104026020016040519081016040528092919081815260200182805461022090612ac4565b801561026d5780601f106102425761010080835404028352916020019161026d565b820191906000526020600020905b81548152906001019060200180831161025057829003601f168201915b50505050509080600201805461028290612ac4565b80601f01602080910402602001604051908101604052809291908181526020018280546102ae90612ac4565b80156102fb5780601f106102d0576101008083540402835291602001916102fb565b820191906000526020600020905b8154815290600101906020018083116102de57829003601f168201915b50505050509080600301805461031090612ac4565b80601f016020809104026020016040519081016040528092919081815260200182805461033c90612ac4565b80156103895780601f1061035e57610100808354040283529160200191610389565b820191906000526020600020905b81548152906001019060200180831161036c57829003601f168201915b505050505090806004016040518060400160405290816000820180546103ae90612ac4565b80601f01602080910402602001604051908101604052809291908181526020018280546103da90612ac4565b80156104275780601f106103fc57610100808354040283529160200191610427565b820191906000526020600020905b81548152906001019060200180831161040a57829003601f168201915b5050505050815260200160018201805461044090612ac4565b80601f016020809104026020016040519081016040528092919081815260200182805461046c90612ac4565b80156104b95780601f1061048e576101008083540402835291602001916104b9565b820191906000526020600020905b81548152906001019060200180831161049c57829003601f168201915b50505050508152505090806006016040518060400160405290816000820180546104e290612ac4565b80601f016020809104026020016040519081016040528092919081815260200182805461050e90612ac4565b801561055b5780601f106105305761010080835404028352916020019161055b565b820191906000526020600020905b81548152906001019060200180831161053e57829003601f168201915b5050505050815260200160018201805461057490612ac4565b80601f01602080910402602001604051908101604052809291908181526020018280546105a090612ac4565b80156105ed5780601f106105c2576101008083540402835291602001916105ed565b820191906000526020600020905b8154815290600101906020018083116105d057829003601f168201915b5050505050815250509080600801805461060690612ac4565b80601f016020809104026020016040519081016040528092919081815260200182805461063290612ac4565b801561067f5780601f106106545761010080835404028352916020019161067f565b820191906000526020600020905b81548152906001019060200180831161066257829003601f168201915b5050505050908060090160009054906101000a900460ff169080600a016040518060600160405290816000820160009054906101000a900460ff16151515158152602001600182015481526020016002820180546106dc90612ac4565b80601f016020809104026020016040519081016040528092919081815260200182805461070890612ac4565b80156107555780601f1061072a57610100808354040283529160200191610755565b820191906000526020600020905b81548152906001019060200180831161073857829003601f168201915b5050505050815250509080600d016040518060600160405290816000820160009054906101000a900460ff16151515158152602001600182015481526020016002820180546107a390612ac4565b80601f01602080910402602001604051908101604052809291908181526020018280546107cf90612ac4565b801561081c5780601f106107f15761010080835404028352916020019161081c565b820191906000526020600020905b8154815290600101906020018083116107ff57829003601f168201915b505050505081525050908060100160009054906101000a900460ff1690508b565b60606001821415610919576000808473ffffffffffffffffffffffffffffffffffffffff1673ffffffffffffffffffffffffffffffffffffffff168152602001908152602001600020600001805461089490612ac4565b80601f01602080910402602001604051908101604052809291908181526020018280546108c090612ac4565b801561090d5780601f106108e25761010080835404028352916020019161090d565b820191906000526020600020905b8154815290600101906020018083116108f057829003601f168201915b50505050509050611008565b60028214156109f3576000808473ffffffffffffffffffffffffffffffffffffffff1673ffffffffffffffffffffffffffffffffffffffff168152602001908152602001600020600101805461096e90612ac4565b80601f016020809104026020016040519081016040528092919081815260200182805461099a90612ac4565b80156109e75780601f106109bc576101008083540402835291602001916109e7565b820191906000526020600020905b8154815290600101906020018083116109ca57829003601f168201915b50505050509050611008565b6003821415610acd576000808473ffffffffffffffffffffffffffffffffffffffff1673ffffffffffffffffffffffffffffffffffffffff1681526020019081526020016000206002018054610a4890612ac4565b80601f0160208091040260200160405190810160405280929190818152602001828054610a7490612ac4565b8015610ac15780601f10610a9657610100808354040283529160200191610ac1565b820191906000526020600020905b815481529060010190602001808311610aa457829003601f168201915b50505050509050611008565b6004821415610ba7576000808473ffffffffffffffffffffffffffffffffffffffff1673ffffffffffffffffffffffffffffffffffffffff1681526020019081526020016000206003018054610b2290612ac4565b80601f0160208091040260200160405190810160405280929190818152602001828054610b4e90612ac4565b8015610b9b5780601f10610b7057610100808354040283529160200191610b9b565b820191906000526020600020905b815481529060010190602001808311610b7e57829003601f168201915b50505050509050611008565b6005821415610c84576000808473ffffffffffffffffffffffffffffffffffffffff1673ffffffffffffffffffffffffffffffffffffffff1681526020019081526020016000206004016000018054610bff90612ac4565b80601f0160208091040260200160405190810160405280929190818152602001828054610c2b90612ac4565b8015610c785780601f10610c4d57610100808354040283529160200191610c78565b820191906000526020600020905b815481529060010190602001808311610c5b57829003601f168201915b50505050509050611008565b6006821415610d61576000808473ffffffffffffffffffffffffffffffffffffffff1673ffffffffffffffffffffffffffffffffffffffff1681526020019081526020016000206004016001018054610cdc90612ac4565b80601f0160208091040260200160405190810160405280929190818152602001828054610d0890612ac4565b8015610d555780601f10610d2a57610100808354040283529160200191610d55565b820191906000526020600020905b815481529060010190602001808311610d3857829003601f168201915b50505050509050611008565b6007821415610e3e576000808473ffffffffffffffffffffffffffffffffffffffff1673ffffffffffffffffffffffffffffffffffffffff1681526020019081526020016000206006016000018054610db990612ac4565b80601f0160208091040260200160405190810160405280929190818152602001828054610de590612ac4565b8015610e325780601f10610e0757610100808354040283529160200191610e32565b820191906000526020600020905b815481529060010190602001808311610e1557829003601f168201915b50505050509050611008565b6008821415610f1b576000808473ffffffffffffffffffffffffffffffffffffffff1673ffffffffffffffffffffffffffffffffffffffff1681526020019081526020016000206006016001018054610e9690612ac4565b80601f0160208091040260200160405190810160405280929190818152602001828054610ec290612ac4565b8015610f0f5780601f10610ee457610100808354040283529160200191610f0f565b820191906000526020600020905b815481529060010190602001808311610ef257829003601f168201915b50505050509050611008565b6009821415610ff5576000808473ffffffffffffffffffffffffffffffffffffffff1673ffffffffffffffffffffffffffffffffffffffff1681526020019081526020016000206008018054610f7090612ac4565b80601f0160208091040260200160405190810160405280929190818152602001828054610f9c90612ac4565b8015610fe95780601f10610fbe57610100808354040283529160200191610fe9565b820191906000526020600020905b815481529060010190602001808311610fcc57829003601f168201915b50505050509050611008565b6040518060200160405280600081525090505b92915050565b600260009054906101000a900473ffffffffffffffffffffffffffffffffffffffff1681565b600260009054906101000a900473ffffffffffffffffffffffffffffffffffffffff1673ffffffffffffffffffffffffffffffffffffffff163373ffffffffffffffffffffffffffffffffffffffff16146110c4576040517f08c379a00000000000000000000000000000000000000000000000000000000081526004016110bb90612b68565b60405180910390fd5b80600260006101000a81548173ffffffffffffffffffffffffffffffffffffffff021916908373ffffffffffffffffffffffffffffffffffffffff16021790555050565b60018081111561111b5761111a61246a565b5b6000808573ffffffffffffffffffffffffffffffffffffffff1673ffffffffffffffffffffffffffffffffffffffff16815260200190815260200160002060090160009054906101000a900460ff16600181111561117c5761117b61246a565b5b141561118757611385565b3373ffffffffffffffffffffffffffffffffffffffff16600260009054906101000a900473ffffffffffffffffffffffffffffffffffffffff1673ffffffffffffffffffffffffffffffffffffffff16141561128b576040518060600160405280600115158152602001838152602001828152506000808573ffffffffffffffffffffffffffffffffffffffff1673ffffffffffffffffffffffffffffffffffffffff168152602001908152602001600020600a0160008201518160000160006101000a81548160ff021916908315150217905550602082015181600101556040820151816002019080519060200190611282929190612130565b5090505061136a565b3373ffffffffffffffffffffffffffffffffffffffff168373ffffffffffffffffffffffffffffffffffffffff161415611369576040518060600160405280600115158152602001838152602001828152506000808573ffffffffffffffffffffffffffffffffffffffff1673ffffffffffffffffffffffffffffffffffffffff168152602001908152602001600020600d0160008201518160000160006101000a81548160ff021916908315150217905550602082015181600101556040820151816002019080519060200190611364929190612130565b509050505b5b61137383611826565b1561138457611383838383611bee565b5b5b505050565b600260009054906101000a900473ffffffffffffffffffffffffffffffffffffffff1673ffffffffffffffffffffffffffffffffffffffff163373ffffffffffffffffffffffffffffffffffffffff161461141a576040517f08c379a000000000000000000000000000000000000000000000000000000000815260040161141190612b68565b60405180910390fd5b6000808273ffffffffffffffffffffffffffffffffffffffff1673ffffffffffffffffffffffffffffffffffffffff16815260200190815260200160002060100160009054906101000a900460ff16156114a0576040517f9b59eb2000000000000000000000000000000000000000000000000000000000815260040160405180910390fd5b60006040518060400160405280888152602001878152509050600060405180604001604052808781526020018681525090506040518061016001604052808d81526020018c81526020018b81526020018a81526020018381526020018281526020018581526020016000600181111561151c5761151b61246a565b5b8152602001604051806060016040528060001515815260200160018152602001604051806020016040528060008152508152508152602001604051806060016040528060001515815260200160018152602001604051806020016040528060008152508152508152602001600115158152506000808573ffffffffffffffffffffffffffffffffffffffff1673ffffffffffffffffffffffffffffffffffffffff16815260200190815260200160002060008201518160000190805190602001906115e8929190612130565b506020820151816001019080519060200190611605929190612130565b506040820151816002019080519060200190611622929190612130565b50606082015181600301908051906020019061163f929190612130565b506080820151816004016000820151816000019080519060200190611665929190612130565b506020820151816001019080519060200190611682929190612130565b50505060a08201518160060160008201518160000190805190602001906116aa929190612130565b5060208201518160010190805190602001906116c7929190612130565b50505060c08201518160080190805190602001906116e6929190612130565b5060e08201518160090160006101000a81548160ff021916908360018111156117125761171161246a565b5b021790555061010082015181600a0160008201518160000160006101000a81548160ff021916908315150217905550602082015181600101556040820151816002019080519060200190611767929190612130565b50505061012082015181600d0160008201518160000160006101000a81548160ff0219169083151502179055506020820151816001015560408201518160020190805190602001906117ba929190612130565b5050506101408201518160100160006101000a81548160ff0219169083151502179055509050507fa2513bf030e534a69e54e6bd39574f1a74ffc353c496ae565e7f0a3cb91f37653360405161181091906126fb565b60405180910390a1505050505050505050505050565b60008060008373ffffffffffffffffffffffffffffffffffffffff1673ffffffffffffffffffffffffffffffffffffffff168152602001908152602001600020600a0160000160009054906101000a900460ff1615806118d557506000808373ffffffffffffffffffffffffffffffffffffffff1673ffffffffffffffffffffffffffffffffffffffff168152602001908152602001600020600d0160000160009054906101000a900460ff16155b156118e35760009050611be9565b6000808373ffffffffffffffffffffffffffffffffffffffff1673ffffffffffffffffffffffffffffffffffffffff168152602001908152602001600020600d01600101546000808473ffffffffffffffffffffffffffffffffffffffff1673ffffffffffffffffffffffffffffffffffffffff168152602001908152602001600020600a01600101541461197b5760009050611be9565b60008060008473ffffffffffffffffffffffffffffffffffffffff1673ffffffffffffffffffffffffffffffffffffffff168152602001908152602001600020600a0160020180546119cc90612ac4565b80601f01602080910402602001604051908101604052809291908181526020018280546119f890612ac4565b8015611a455780601f10611a1a57610100808354040283529160200191611a45565b820191906000526020600020905b815481529060010190602001808311611a2857829003601f168201915b5050505050905060008060008573ffffffffffffffffffffffffffffffffffffffff1673ffffffffffffffffffffffffffffffffffffffff168152602001908152602001600020600d016002018054611a9d90612ac4565b80601f0160208091040260200160405190810160405280929190818152602001828054611ac990612ac4565b8015611b165780601f10611aeb57610100808354040283529160200191611b16565b820191906000526020600020905b815481529060010190602001808311611af957829003601f168201915b505050505090508051825114611b3157600092505050611be9565b60005b8251811015611be157818181518110611b5057611b4f612b88565b5b602001015160f81c60f81b7effffffffffffffffffffffffffffffffffffffffffffffffffffffffffffff1916838281518110611b9057611b8f612b88565b5b602001015160f81c60f81b7effffffffffffffffffffffffffffffffffffffffffffffffffffffffffffff191614611bce5760009350505050611be9565b8080611bd990612be6565b915050611b34565b506001925050505b919050565b6001821415611c5257806000808573ffffffffffffffffffffffffffffffffffffffff1673ffffffffffffffffffffffffffffffffffffffff1681526020019081526020016000206000019080519060200190611c4c929190612130565b50611ff1565b6002821415611cb657806000808573ffffffffffffffffffffffffffffffffffffffff1673ffffffffffffffffffffffffffffffffffffffff1681526020019081526020016000206001019080519060200190611cb0929190612130565b50611ff0565b6003821415611d1a57806000808573ffffffffffffffffffffffffffffffffffffffff1673ffffffffffffffffffffffffffffffffffffffff1681526020019081526020016000206002019080519060200190611d14929190612130565b50611fef565b6004821415611d7e57806000808573ffffffffffffffffffffffffffffffffffffffff1673ffffffffffffffffffffffffffffffffffffffff1681526020019081526020016000206003019080519060200190611d78929190612130565b50611fee565b6005821415611de557806000808573ffffffffffffffffffffffffffffffffffffffff1673ffffffffffffffffffffffffffffffffffffffff1681526020019081526020016000206004016000019080519060200190611ddf929190612130565b50611fed565b6006821415611e4c57806000808573ffffffffffffffffffffffffffffffffffffffff1673ffffffffffffffffffffffffffffffffffffffff1681526020019081526020016000206004016001019080519060200190611e46929190612130565b50611fec565b6007821415611eb357806000808573ffffffffffffffffffffffffffffffffffffffff1673ffffffffffffffffffffffffffffffffffffffff1681526020019081526020016000206006016000019080519060200190611ead929190612130565b50611feb565b6008821415611f1a57806000808573ffffffffffffffffffffffffffffffffffffffff1673ffffffffffffffffffffffffffffffffffffffff1681526020019081526020016000206006016001019080519060200190611f14929190612130565b50611fea565b6009821415611f7e57806000808573ffffffffffffffffffffffffffffffffffffffff1673ffffffffffffffffffffffffffffffffffffffff1681526020019081526020016000206008019080519060200190611f78929190612130565b50611fe9565b60016000808573ffffffffffffffffffffffffffffffffffffffff1673ffffffffffffffffffffffffffffffffffffffff16815260200190815260200160002060090160006101000a81548160ff02191690836001811115611fe357611fe261246a565b5b02179055505b5b5b5b5b5b5b5b5b60036000808573ffffffffffffffffffffffffffffffffffffffff1673ffffffffffffffffffffffffffffffffffffffff168152602001908152602001600020600a016000820160009054906101000a900460ff168160000160006101000a81548160ff02191690831515021790555060018201548160010155600282018160020190805461207f90612ac4565b61208a9291906121b6565b5090505060036000808573ffffffffffffffffffffffffffffffffffffffff1673ffffffffffffffffffffffffffffffffffffffff168152602001908152602001600020600d016000820160009054906101000a900460ff168160000160006101000a81548160ff02191690831515021790555060018201548160010155600282018160020190805461211c90612ac4565b6121279291906121b6565b50905050505050565b82805461213c90612ac4565b90600052602060002090601f01602090048101928261215e57600085556121a5565b82601f1061217757805160ff19168380011785556121a5565b828001600101855582156121a5579182015b828111156121a4578251825591602001919060010190612189565b5b5090506121b29190612243565b5090565b8280546121c290612ac4565b90600052602060002090601f0160209004810192826121e45760008555612232565b82601f106121f55780548555612232565b8280016001018555821561223257600052602060002091601f016020900482015b82811115612231578254825591600101919060010190612216565b5b50905061223f9190612243565b5090565b5b8082111561225c576000816000905550600101612244565b5090565b6000604051905090565b600080fd5b600080fd5b600073ffffffffffffffffffffffffffffffffffffffff82169050919050565b600061229f82612274565b9050919050565b6122af81612294565b81146122ba57600080fd5b50565b6000813590506122cc816122a6565b92915050565b6000602082840312156122e8576122e761226a565b5b60006122f6848285016122bd565b91505092915050565b600081519050919050565b600082825260208201905092915050565b60005b8381101561233957808201518184015260208101905061231e565b83811115612348576000848401525b50505050565b6000601f19601f8301169050919050565b600061236a826122ff565b612374818561230a565b935061238481856020860161231b565b61238d8161234e565b840191505092915050565b600082825260208201905092915050565b60006123b4826122ff565b6123be8185612398565b93506123ce81856020860161231b565b6123d78161234e565b840191505092915050565b600060408301600083015184820360008601526123ff82826123a9565b9150506020830151848203602086015261241982826123a9565b9150508091505092915050565b6000604083016000830151848203600086015261244382826123a9565b9150506020830151848203602086015261245d82826123a9565b9150508091505092915050565b7f4e487b7100000000000000000000000000000000000000000000000000000000600052602160045260246000fd5b600281106124aa576124a961246a565b5b50565b60008190506124bb82612499565b919050565b60006124cb826124ad565b9050919050565b6124db816124c0565b82525050565b60008115159050919050565b6124f6816124e1565b82525050565b6000819050919050565b61250f816124fc565b82525050565b600060608301600083015161252d60008601826124ed565b5060208301516125406020860182612506565b506040830151848203604086015261255882826123a9565b9150508091505092915050565b61256e816124e1565b82525050565b600061016082019050818103600083015261258f818e61235f565b905081810360208301526125a3818d61235f565b905081810360408301526125b7818c61235f565b905081810360608301526125cb818b61235f565b905081810360808301526125df818a6123e2565b905081810360a08301526125f38189612426565b905081810360c0830152612607818861235f565b905061261660e08301876124d2565b8181036101008301526126298186612515565b905081810361012083015261263e8185612515565b905061264e610140830184612565565b9c9b505050505050505050505050565b612667816124fc565b811461267257600080fd5b50565b6000813590506126848161265e565b92915050565b600080604083850312156126a1576126a061226a565b5b60006126af858286016122bd565b92505060206126c085828601612675565b9150509250929050565b600060208201905081810360008301526126e4818461235f565b905092915050565b6126f581612294565b82525050565b600060208201905061271060008301846126ec565b92915050565b600080fd5b600080fd5b7f4e487b7100000000000000000000000000000000000000000000000000000000600052604160045260246000fd5b6127588261234e565b810181811067ffffffffffffffff8211171561277757612776612720565b5b80604052505050565b600061278a612260565b9050612796828261274f565b919050565b600067ffffffffffffffff8211156127b6576127b5612720565b5b6127bf8261234e565b9050602081019050919050565b82818337600083830152505050565b60006127ee6127e98461279b565b612780565b90508281526020810184848401111561280a5761280961271b565b5b6128158482856127cc565b509392505050565b600082601f83011261283257612831612716565b5b81356128428482602086016127db565b91505092915050565b6000806000606084860312156128645761286361226a565b5b6000612872868287016122bd565b935050602061288386828701612675565b925050604084013567ffffffffffffffff8111156128a4576128a361226f565b5b6128b08682870161281d565b9150509250925092565b6000806000806000806000806000806101408b8d0312156128de576128dd61226a565b5b60008b013567ffffffffffffffff8111156128fc576128fb61226f565b5b6129088d828e0161281d565b9a505060208b013567ffffffffffffffff8111156129295761292861226f565b5b6129358d828e0161281d565b99505060408b013567ffffffffffffffff8111156129565761295561226f565b5b6129628d828e0161281d565b98505060608b013567ffffffffffffffff8111156129835761298261226f565b5b61298f8d828e0161281d565b97505060808b013567ffffffffffffffff8111156129b0576129af61226f565b5b6129bc8d828e0161281d565b96505060a08b013567ffffffffffffffff8111156129dd576129dc61226f565b5b6129e98d828e0161281d565b95505060c08b013567ffffffffffffffff811115612a0a57612a0961226f565b5b612a168d828e0161281d565b94505060e08b013567ffffffffffffffff811115612a3757612a3661226f565b5b612a438d828e0161281d565b9350506101008b013567ffffffffffffffff811115612a6557612a6461226f565b5b612a718d828e0161281d565b925050610120612a838d828e016122bd565b9150509295989b9194979a5092959850565b7f4e487b7100000000000000000000000000000000000000000000000000000000600052602260045260246000fd5b60006002820490506001821680612adc57607f821691505b60208210811415612af057612aef612a95565b5b50919050565b7f55736572206973206e6f7420617574686f72697a656420746f20616464206e6560008201527f7720757365720000000000000000000000000000000000000000000000000000602082015250565b6000612b5260268361230a565b9150612b5d82612af6565b604082019050919050565b60006020820190508181036000830152612b8181612b45565b9050919050565b7f4e487b7100000000000000000000000000000000000000000000000000000000600052603260045260246000fd5b7f4e487b7100000000000000000000000000000000000000000000000000000000600052601160045260246000fd5b6000612bf1826124fc565b91507fffffffffffffffffffffffffffffffffffffffffffffffffffffffffffffffff821415612c2457612c23612bb7565b5b60018201905091905056fea264697066735822122047620b40674ff27c05ec197f00bc3f461e310442bf08927f30e39830029ef98364736f6c634300080a0033",
  "linkReferences": {},
  "deployedLinkReferences": {}
}